:100000000C942A000C9447000C9447000C94470071
:100010000C9447000C9447000C9447000C94470044
:100020000C9447000C9447000C9447000C94470034
:100030000C9447000C9447000C9447000C94470024
:100040000C9447000C9447000C9447000C94470014
:100050000C94470011241FBECFE5D4E0DEBFCDBF16
:1000600010E0A0E6B0E0EEE0F4E002C005900D92F2
:10007000A236B107D9F711E0A2E6B0E001C01D92A7
:10008000A936B107E1F70E94D2010C9405020C9445
:10009000000083E080B9089584EA86BF06B607FEB3
:1000A000FDCF089583B984E886BF06B607FEFDCF6D
:1000B000089584E986BF08950F931F93182F062F84
:1000C0000E944C00802F0E945200812F0E945200FB
:1000D0000E9459001F910F910895882319F08130D3
:1000E00091F409C080916200877F809362006EE482
:1000F0000E945C0008958091620088608093620095
:100100006EE40E945C0008951F93182F8091620096
:100110008460809362006EE40E945C0080E18A95B6
:10012000F1F700C01295107F80916200812B6EE480
:100130000E945C00809162008B7F809362006EE47D
:100140000E945C001F9108951F93182F662349F4A5
:10015000809162008E7F809362006EE40E945C005A
:1001600008C0809162008160809362006EE40E940A
:100170005C00812F82958F700E948400812F0E94E5
:1001800084001F91089583E00E94840081EE94E032
:100190000197F1F700C0000083E00E94840091E223
:1001A0009A95F1F7000083E00E94840089EF90E0C7
:1001B0000197F1F700C0000082E00E94840089EFFF
:1001C00090E00197F1F700C0000088E260E00E9433
:1001D000A40089EF90E00197F1F700C000008EE0E5
:1001E00060E00E94A40089EF90E00197F1F700C061
:1001F0000000809162008860809362006EE40E943B
:100200005C00809162008D7F809362006EE40E94AA
:100210005C0008951F93CF93DF93EC0188818823BE
:1002200059F010E061E00E94A4001F5FFE01E10FA1
:10023000F11D80818823B1F7DF91CF911F9108953F
:10024000613061F0613028F0623071F06330B9F4F0
:1002500011C0806860E00E94A4000895805C8068FE
:1002600060E00E94A4000895805F806860E00E94C2
:10027000A4000895805B806860E00E94A400089557
:1002800081E060E00E94A40081EE94E00197F1F724
:1002900000C00000089581B38C6B81BB85B5896671
:1002A00085BD8FB5816A8FBD8EB589608EBD84B3E3
:1002B000836084BB0E94490083ED90E30197F1F7CE
:1002C00000C000000E94C3000E94DE010E944001A5
:1002D0008FE085BF80EC8BBF7894FFCFCF93DF9307
:1002E00081B38FEF81BB84B3836084BB8FE085BF14
:1002F00080EC8BBF78940E94490083E294EF0197D1
:10030000F1F700C000000E94C3000E94DE0183E2FA
:1003100094EF0197F1F700C000000E944001C9E688
:10032000D0E00E94EC018D3001F510926000CE010A
:100330000E94F001CE010E940A01209165003091D7
:1003400066001216130644F4FE0180E090E011925C
:10035000019682179307DCF31092660010926500F5
:100360000E94EC010E94E801DCCF209165003091F1
:100370006600FE01E20FF31F80832F5F3F4F309333
:100380006600209365001092600082B3805882BBA3
:1003900083EC99E00197F1F700C0000082B3805828
:1003A00082BBBFCF0E946E01FFCF80E060E00E9461
:1003B0002001089583BD6ABD48BD08951BB88AB168
:1003C00088618AB980B5866880BD89E189B9089558
:1003D0005D9BFECF8CB908955F9BFECF8CB10895D5
:1003E000CF93DF93EC018881882331F021960E941E
:1003F000E80189918823D9F78DE00E94E8018AE01D
:0E0400000E94E801DF91CF910895F894FFCF9C
:02040E0061008B
:00000001FF
