:100000000C942A000C9489020C944D020C94470025
:100010000C9447000C9447000C9447000C94470044
:100020000C9447000C9447000C9447000C94470034
:100030000C9447000C9447000C9447000C94470024
:100040000C9447000C9447000C9447000C94470014
:100050000C94470011241FBECFE5D4E0DEBFCDBF16
:1000600010E0A0E6B0E0ECEDF5E002C005900D92E6
:10007000A63EB107D9F711E0A6EEB0E001C01D928F
:10008000AD3EB107E1F70E946E010C94EC020C94B6
:10009000000083E080B9089584EA86BF06B607FEB3
:1000A000FDCF089583B984E886BF06B607FEFDCF6D
:1000B000089584E986BF08950F931F93182F062F84
:1000C0000E944C00802F0E945200812F0E945200FB
:1000D0000E9459001F910F910895882319F08130D3
:1000E00091F409C08091E600877F8093E6006EE47A
:1000F0000E945C0008958091E60088608093E6008D
:100100006EE40E945C0008951F93182F8091E60012
:1001100084608093E6006EE40E945C0080E18A9532
:10012000F1F700C01295107F8091E600812B6EE4FC
:100130000E945C008091E6008B7F8093E6006EE475
:100140000E945C001F9108951F93182F662349F4A5
:100150008091E6008E7F8093E6006EE40E945C0052
:1001600008C08091E60081608093E6006EE40E9402
:100170005C00812F82958F700E948400812F0E94E5
:1001800084001F91089583E00E94840081EE94E032
:100190000197F1F700C0000083E00E94840091E223
:1001A0009A95F1F7000083E00E94840089EF90E0C7
:1001B0000197F1F700C0000082E00E94840089EFFF
:1001C00090E00197F1F700C0000088E260E00E9433
:1001D000A40089EF90E00197F1F700C000008EE0E5
:1001E00060E00E94A40089EF90E00197F1F700C061
:1001F00000008091E60088608093E6006EE40E9433
:100200005C008091E6008D7F8093E6006EE40E94A2
:100210005C0008951F93CF93DF93EC0188818823BE
:1002200059F010E061E00E94A4001F5FFE01E10FA1
:10023000F11D80818823B1F7DF91CF911F9108953F
:10024000613061F0613028F0623071F06330B9F4F0
:1002500011C0806860E00E94A4000895805C8068FE
:1002600060E00E94A4000895805F806860E00E94C2
:10027000A4000895805B806860E00E94A400089557
:1002800081E060E00E94A40081EE94E00197F1F724
:1002900000C00000089581B38C6B81BB85B5896671
:1002A00085BD8FB5816A8FBD8EB589608EBD84B3E3
:1002B000836084BB0E94490083ED90E30197F1F7CE
:1002C00000C000000E94C3000E94C5020E944001BD
:1002D0008FE085BF80EC8BBF7894FFCF0E944B01ED
:1002E000FFCF83BD6ABD48BD08958430910509F4F0
:1002F00067C08530910564F48230910579F18330CF
:1003000091050CF044C08130910509F0BDC00DC0CD
:100310008630910509F486C0863091050CF469C0D9
:100320008730910509F0B0C096C08FEF90E060E093
:1003300070E040E050E00E94710180E060E00E94C7
:10034000200180E690E00E940A0180E061E00E94C6
:1003500020018CE690E00E940A0108958FEF90E062
:1003600065EA70E040E050E00E94710180E060E0EA
:100370000E94200180E790E00E940A0180E061E095
:100380000E9420018EE790E00E940A0108958FEFFD
:1003900090E06FEF70E040E050E00E94710180E07B
:1003A00060E00E94200185E890E00E940A0180E060
:1003B00061E00E94200183E990E00E940A01089513
:1003C00080E090E06FEF70E040E050E00E9471014B
:1003D00080E060E00E9420018AE990E00E940A012A
:1003E00080E061E00E94200186EA90E00E940A011C
:1003F000089580E090E06FEF70E04FEF50E00E94D2
:10040000710180E060E00E9420018CEA90E00E948F
:100410000A0180E061E00E9420018AEB90E00E94E6
:100420000A01089580E090E060E070E04FEF50E056
:100430000E94710180E060E00E9420018FEB90E05B
:100440000E940A0180E061E00E9420018BEC90E0B4
:100450000E940A01089580E890E060E070E040E8C2
:1004600050E00E94710180E060E00E94200180ED78
:1004700090E00E940A0180E061E00E9420018EED80
:1004800090E00E940A01089580E090E060E070E052
:1004900040E050E00E94710108951F920F920FB644
:1004A0000F9211242F933F934F935F936F937F93FA
:1004B0008F939F93AF93BF93EF93FF938091E70048
:1004C0009091E80001979093E8008093E700181658
:1004D000190634F087E090E09093E8008093E700FD
:1004E0000E9440018091E7009091E8000E94750110
:1004F000FF91EF91BF91AF919F918F917F916F91FC
:100500005F914F913F912F910F900FBE0F901F90D1
:1005100018951F920F920FB60F9211242F933F93AD
:100520004F935F936F937F938F939F93AF93BF93FB
:10053000EF93FF938091E7009091E80001969093EC
:10054000E8008093E7008830910534F081E090E086
:100550009093E8008093E7000E9440018091E700BB
:100560009091E8000E947501FF91EF91BF91AF91CA
:100570009F918F917F916F915F914F913F912F91BB
:100580000F900FBE0F901F9018951BB88AB188610D
:100590008AB980B5866880BD89E189B908955D9B77
:1005A000FECF8CB908955F9BFECF8CB10895CF9399
:1005B000DF93EC018881882331F021960E94CF02DD
:1005C00089918823D9F78DE00E94CF028AE00E94AA
:0C05D000CF02DF91CF910895F894FFCF87
:1005DC00283235352C20302C20302900526564000F
:1005EC00283235352C203136352C203029004F72ED
:1005FC00616E676500283235352C203235352C205C
:10060C0030290059656C6C6F770028302C203235FE
:10061C00352C20302900477265656E0028302C205F
:10062C003235352C2032353529004379616E00285E
:10063C00302C20302C203235352900426C75650069
:10064C00283132382C20302C203132382900566990
:06065C006F6C6574006183
:00000001FF
