:100000000C942A000C9447000C9447000C94470071
:100010000C9447000C9447000C9447000C94470044
:100020000C9447000C9447000C9447000C94470034
:100030000C9447000C9447000C9447000C94470024
:100040000C9447000C9447000C9447000C94470014
:100050000C94470011241FBECFE5D4E0DEBFCDBF16
:1000600010E0A0E6B0E0ECE0F3E002C005900D92F5
:10007000A23AB107D9F710E0A2EAB0E001C01D92A0
:10008000A33AB107E1F70E944B010C9484010C9450
:10009000000083E080B9089584EA86BF06B607FEB3
:1000A000FDCF089583B984E886BF06B607FEFDCF6D
:1000B000089584E986BF08950F931F93182F062F84
:1000C0000E944C00802F0E945200812F0E945200FB
:1000D0000E9459001F910F910895882319F08130D3
:1000E00091F409C08091A200877F8093A2006EE402
:1000F0000E945C0008958091A20088608093A20015
:100100006EE40E945C0008951F93182F8091A20056
:1001100084608093A2006EE40E945C0080E18A9576
:10012000F1F700C01295107F8091A200812B6EE440
:100130000E945C008091A2008B7F8093A2006EE4FD
:100140000E945C001F9108951F93182F662349F4A5
:100150008091A2008E7F8093A2006EE40E945C00DA
:1001600008C08091A20081608093A2006EE40E948A
:100170005C00812F82958F700E948400812F0E94E5
:1001800084001F91089583E00E94840081EE94E032
:100190000197F1F700C0000083E00E94840091E223
:1001A0009A95F1F7000083E00E94840089EF90E0C7
:1001B0000197F1F700C0000082E00E94840089EFFF
:1001C00090E00197F1F700C0000088E260E00E9433
:1001D000A40089EF90E00197F1F700C000008EE0E5
:1001E00060E00E94A40089EF90E00197F1F700C061
:1001F00000008091A20088608093A2006EE40E94BB
:100200005C008091A2008D7F8093A2006EE40E942A
:100210005C0008951F93CF93DF93EC0188818823BE
:1002200059F010E061E00E94A4001F5FFE01E10FA1
:10023000F11D80818823B1F7DF91CF911F9108953F
:10024000613061F0613028F0623071F06330B9F4F0
:1002500011C0806860E00E94A4000895805C8068FE
:1002600060E00E94A4000895805F806860E00E94C2
:10027000A4000895805B806860E00E94A400089557
:1002800081E060E00E94A40081EE94E00197F1F724
:1002900000C00000089584B3836084BB0E944900BD
:1002A00083ED90E30197F1F700C000000E94C300C6
:1002B0008FE39DE0A3E081509040A040E1F700C0B3
:1002C00000000E94400180E060E00E94200180E682
:1002D00090E00E940A0181E061E00E94200181E734
:1002E00090E00E940A0180E062E00E94200180E824
:1002F00090E00E940A0181E063E00E94200181E910
:0C03000090E00E940A01FFCFF894FFCFAC
:10030C003C3C20436F64656372616E6368203E3EC3
:10031C00003E3E202020202020202020203C3C009D
:10032C00536F6674207468617420776F726B7321DD
:10033C0000636F64656372616E63682E636F6D201A
:02034C000000AF
:00000001FF
