:100000000C942A000C94F5020C94B9020C9447004D
:100010000C9447000C9447000C9447000C94470044
:100020000C9447000C9447000C9447000C94470034
:100030000C9447000C9447000C9447000C94470024
:100040000C9447000C9447000C9447000C94470014
:100050000C94470011241FBECFE5D4E0DEBFCDBF16
:1000600010E0A0E6B0E0E4EBF6E002C005900D92EF
:10007000AC3CB107D9F711E0ACECB0E001C01D9287
:10008000A235B107E1F70E94BC010C9458030C940F
:10009000000083E080B9089584EA86BF06B607FEB3
:1000A000FDCF089583B984E886BF06B607FEFDCF6D
:1000B000089584E986BF08950F931F93182F062F84
:1000C0000E944C00802F0E945200812F0E945200FB
:1000D0000E9459001F910F910895882319F08130D3
:1000E00091F409C08091CC00877F8093CC006EE4AE
:1000F0000E945C0008958091CC0088608093CC00C1
:100100006EE40E945C0008951F93182F8091CC002C
:1001100084608093CC006EE40E945C0080E18A954C
:10012000F1F700C01295107F8091CC00812B6EE416
:100130000E945C008091CC008B7F8093CC006EE4A9
:100140000E945C001F9108951F93182F662349F4A5
:100150008091CC008E7F8093CC006EE40E945C0086
:1001600008C08091CC0081608093CC006EE40E9436
:100170005C00812F82958F700E948400812F0E94E5
:1001800084001F91089583E00E94840081EE94E032
:100190000197F1F700C0000083E00E94840091E223
:1001A0009A95F1F7000083E00E94840089EF90E0C7
:1001B0000197F1F700C0000082E00E94840089EFFF
:1001C00090E00197F1F700C0000088E260E00E9433
:1001D000A40089EF90E00197F1F700C000008EE0E5
:1001E00060E00E94A40089EF90E00197F1F700C061
:1001F00000008091CC0088608093CC006EE40E9467
:100200005C008091CC008D7F8093CC006EE40E94D6
:100210005C0008951F93CF93DF93EC0188818823BE
:1002200059F010E061E00E94A4001F5FFE01E10FA1
:10023000F11D80818823B1F7DF91CF911F9108953F
:10024000613061F0613028F0623071F06330B9F4F0
:1002500011C0806860E00E94A4000895805C8068FE
:1002600060E00E94A4000895805F806860E00E94C2
:10027000A4000895805B806860E00E94A400089557
:1002800081E060E00E94A40081EE94E00197F1F724
:1002900000C00000089581B38C6B81BB85B5896671
:1002A00085BD8FB5816A8FBD8EB589608EBD84B3E3
:1002B000836084BB0E94490083ED90E30197F1F7CE
:1002C00000C000000E94C3000E9440018FE085BF73
:1002D00080EC8BBF78940895CF93DF9384B38360D1
:1002E00084BB0E94490083ED90E30197F1F700C0C1
:1002F00000000E94C3000E944001C1E0D0E00E94C3
:100300003F038093D1002091CD003091CE002F5F2C
:100310003F4F3093CE002093CD002F30310579F739
:100320002091CF003091D0002130310561F0109242
:10033000CE001092CD00D093D000C093CF0061E0EA
:100340000E94A400DCCFD093D000C093CF000E94C5
:1003500040011092D0001092CF001092CE00109267
:10036000CD008091D10061E00E94A400C8CF80E060
:1003700060E00E94200108950F931F93CF93DF93B5
:1003800081B38FEF81BB0E9431030E94400180E066
:1003900060E00E942001C2EDD0E08E010B5F1F4F94
:1003A0000E943F038993C017D107D1F782ED90E0F7
:1003B0000E940A010E94B701FDCF83BD6ABD48BDFE
:1003C00008958430910509F467C08530910564F47F
:1003D0008230910579F1833091050CF044C0813071
:1003E000910509F0BDC00DC08630910509F486C0A5
:1003F000863091050CF469C08730910509F0B0C0D2
:1004000096C08FEF90E060E070E040E050E00E9426
:10041000DD0180E060E00E94200180E690E00E9423
:100420000A0180E061E00E9420018CE690E00E94D9
:100430000A0108958FEF90E065EA70E040E050E037
:100440000E94DD0180E060E00E94200180E790E0F2
:100450000E940A0180E061E00E9420018EE790E0A6
:100460000E940A0108958FEF90E06FEF70E040E086
:1004700050E00E94DD0180E060E00E94200185E8FC
:1004800090E00E940A0180E061E00E94200183E97F
:1004900090E00E940A01089580E090E06FEF70E024
:1004A00040E050E00E94DD0180E060E00E94200119
:1004B00085E890E00E940A0180E061E00E9420014E
:1004C0008AE990E00E940A01089580E090E06FEFD1
:1004D00070E04FEF50E00E94DD0180E060E00E949C
:1004E000200180E690E00E940A0180E061E00E9425
:1004F000200180EA90E00E940A01089580E090E0E7
:1005000060E070E04FEF50E00E94DD0180E060E0CD
:100510000E94200185EA90E00E940A0180E061E0EB
:100520000E94200181EB90E00E940A01089580E87A
:1005300090E060E070E040E850E00E94DD0180E083
:1005400060E00E94200186EB90E00E940A0180E0BA
:1005500061E00E94200184EC90E00E940A0108956D
:1005600080E090E060E070E040E050E00E94DD015B
:1005700008951F920F920FB60F9211242F933F935D
:100580004F935F936F937F938F939F93AF93BF939B
:10059000EF93FF938091CD009091CE0001979093BF
:1005A000CE008093CD001816190634F087E090E055
:1005B0009093CE008093CD000E9440018091CD00A9
:1005C0009091CE000E94E101FF91EF91BF91AF9118
:1005D0009F918F917F916F915F914F913F912F915B
:1005E0000F900FBE0F901F9018951F920F920FB68D
:1005F0000F9211242F933F934F935F936F937F93A9
:100600008F939F93AF93BF93EF93FF938091CD0010
:100610009091CE0001969093CE008093CD008830CB
:10062000910534F081E090E09093CE008093CD006E
:100630000E9440018091CD009091CE000E94E10186
:10064000FF91EF91BF91AF919F918F917F916F91AA
:100650005F914F913F912F910F900FBE0F901F9080
:1006600018951BB88AB188618AB980B5866880BD43
:1006700089E189B908955D9BFECF8CB908955F9B90
:10068000FECF8CB10895CF93DF93EC01888188234E
:1006900031F021960E943B0389918823D9F78DE0A0
:1006A0000E943B038AE00E943B03DF91CF910895B3
:0406B000F894FFCFEC
:1006B400283235352C20302C203029005265640036
:1006C400283235352C203136352C203029004F7214
:1006D400616E676500283235352C203235352C2083
:1006E40030290059656C6C6F7700477265656E0040
:1006F4004379616E0028302C20302C203235352986
:1007040000426C756500283132382C20302C2031A1
:0C0714003238290056696F6C65740000D3
:00000001FF
