:100000000C942A000C947B000C94B4000C944700D0
:100010000C9447000C9447000C9447000C94470044
:100020000C9447000C9447000C9447000C94470034
:100030000C9447000C9447000C9447000C94470024
:100040000C9447000C9447000C9447000C94470014
:100050000C94470011241FBECFE5D4E0DEBFCDBF16
:1000600010E0A0E6B0E0ECE6F2E002C005900D92F0
:10007000A037B107D9F710E0A0E7B0E001C01D92AA
:10008000A03FB107E1F70E9451000C9434010C9499
:1000900000005D9BFECF8CB908955F9BFECF8CB1B5
:1000A000089581B38FEF81BB8FE085BF80EC8BBF5C
:1000B0001BB88AB188618AB980B5866880BD89E13C
:1000C00089B90E944D000E944900FBCFCF93DF9376
:1000D000EC018881882331F021960E9449008991A2
:1000E0008823D9F78DE00E9449008AE00E944900E8
:1000F000DF91CF9108951F920F920FB60F921124A6
:100100002F933F934F935F936F937F938F939F931F
:10011000AF93BF93CF93DF93EF93FF9380916D00E5
:1001200090916E00019690936E0080936D00C0E7F1
:10013000D0E0BE014AE050E00E94EF00CE010E94F4
:100140006600FF91EF91DF91CF91BF91AF919F91A9
:100150008F917F916F915F914F913F912F910F9070
:100160000FBE0F901F9018951F920F920FB60F920F
:1001700011242F933F934F935F936F937F938F93AC
:100180009F93AF93BF93CF93DF93EF93FF938091B0
:100190006D0090916E00009779F0019790936E003A
:1001A00080936D00C0E7D0E0BE014AE050E00E94BD
:1001B000EF00CE010E946600FF91EF91DF91CF9199
:1001C000BF91AF919F918F917F916F915F914F916F
:1001D0003F912F910F900FBE0F901F901895FB012C
:1001E0009F01E8944230C4F04532B4F44A3029F417
:1001F00097FB1EF4909581959F4F642F77270E945F
:100200002001805D8A330CF0895D8193CB010097DA
:10021000A1F716F45DE251931082C9010C9410010C
:10022000DC01FC01672F71917723E1F7329704C05D
:100230007C916D9370836291AE17BF07C8F30895E8
:10024000AA1BBB1B51E107C0AA1FBB1FA617B707FC
:1002500010F0A61BB70B881F991F5A95A9F7809518
:0C0260009095BC01CD010895F894FFCFEB
:10026C0042616261207320626562652000000800B3
:00000001FF
