:100000000C942A000C9434000C9434000C943400AA
:100010000C9434000C9434000C9434000C94340090
:100020000C9434000C9434000C9434000C94340080
:100030000C9434000C9434000C9434000C94340070
:100040000C9434000C9434000C9434000C94340060
:100050000C94340011241FBECFE5D4E0DEBFCDBF29
:100060000E9461000C94A5000C94000083E080B90C
:10007000089584EA86BF06B607FEFDCF089583B9CA
:1000800084E886BF06B607FEFDCF089584E986BFE3
:1000900008950E9439000E94460083B190E00895BF
:1000A0000F931F93182F062F0E943900802F0E9454
:1000B0003F00812F0E943F000E9446001F910F9138
:1000C00008950E94360087EA91E60197F1F700C093
:1000D00000000E947E008CE20E943F0086E00E94A9
:1000E0003F0087EA91E60197F1F700C000000E9407
:1000F00049000E9488000E948C00EDCF1BB88AB195
:1001000088618AB980B5866880BD89E189B908951A
:100110005D9BFECF8CB908955F9BFECF8CB1089597
:10012000CF93DF93EC018881882331F021960E94E0
:10013000880089918823D9F78DE00E9488008AE0A1
:0E0140000E948800DF91CF910895F894FFCFC0
:00000001FF
