:100000000C942A000C9447000C9447000C94470071
:100010000C9447000C9447000C9447000C94470044
:100020000C9447000C9447000C9447000C94470034
:100030000C9447000C9447000C9447000C94470024
:100040000C9447000C9447000C9447000C94470014
:100050000C94470011241FBECFE5D4E0DEBFCDBF16
:1000600010E0A0E6B0E0E6E0F6E002C005900D92F8
:10007000A236B107D9F710E0A2E6B0E001C01D92A8
:10008000A337B107E1F70E9405020C9401030C9419
:100090000000982F06B607FEFDCF81B1887F891733
:1000A00009F480E0089594EA96BF0E94490090E028
:1000B000089584E986BF089583B984E886BF862FB2
:1000C0000E94490090E00895CF93DF93EC01862FC2
:1000D0004295440F440F407C446846BF0E9449004B
:1000E000882329F483B1888320E030E002C02FEF19
:1000F0003FEF822F932FDF91CF91089594B39C7F90
:1001000094BB95B3936095BB882311F480E201C042
:1001100082E080B981B18C7F81B986B7846086BF67
:10012000089586B78B7F86BF10B881B18C7F81B967
:1001300084B38C7F84BB85B38C7F85BB0895DF92AD
:10014000EF92FF920F931F93CF93DF93082F162FF9
:10015000D72E7A0188E00E945300009729F00E9470
:1001600059002FEF3FEF29C0802F880F68E10E94D0
:100170005C00009721F41E141F0434F01AC00E9482
:1001800059002FEF3FEF19C0012F1D2DC0E0D0E027
:10019000F80181918F0168E20E945C00009729F0CC
:1001A0000E9459002FEF3FEF08C02196CE15DF05C2
:1001B0007CF30E94590020E030E0822F932FDF91E2
:1001C000CF911F910F91FF90EF90DF900895DF92F4
:1001D000EF92FF920F931F93CF93DF93D82E7B0163
:1001E0008A0188E00E945300009729F00E9459007C
:1001F0002FEF3FEF3BC08D2D880F816060E40E94A0
:100200005C00009741F4015010401016110644F0B4
:10021000C0E0D0E019C00E9459002FEF3FEF26C088
:10022000C0E0D0E0C7018C0F9D1F60E541E00E9457
:100230006400009729F00E9459002FEF3FEF16C08D
:100240002196C017D10774F3C7018C0F9D1F68E575
:1002500040E00E946400009729F00E9459002FEFAF
:100260003FEF04C00E94590020E030E0822F932F1E
:10027000DF91CF911F910F91FF90EF90DF90089544
:100280007F928F929F92AF92BF92CF92DF92EF9226
:10029000FF920F931F93CF93DF93B82EA62E772E46
:1002A0007A016901480188E00E945300009729F013
:1002B0000E9459002FEF3FEF6BC08B2D880F68E134
:1002C0000E945C00009721F41E141F0434F01AC031
:1002D0000E9459002FEF3FEF5BC00A2D172DC0E0A1
:1002E000D0E0F80181918F0168E20E945C000097E4
:1002F00029F00E9459002FEF3FEF4AC02196CE15FA
:10030000DF057CF380E10E945300009729F00E94F2
:1003100059002FEF3FEF3CC08B2D880F816060E4C8
:100320000E945C00009749F48401015010401016AF
:10033000110644F0C0E0D0E019C00E9459002FEF30
:100340003FEF26C0C0E0D0E0C6018C0F9D1F60E5E6
:1003500041E00E946400009729F00E9459002FEFAD
:100360003FEF16C02196C017D10774F3C6018C0F5A
:100370009D1F68E540E00E946400009729F00E94FC
:1003800059002FEF3FEF04C00E94590020E030E0F9
:10039000822F932FDF91CF911F910F91FF90EF90BC
:1003A000DF90CF90BF90AF909F908F907F900895F7
:1003B00083E080B9089584EA86BF06B607FEFDCFC4
:1003C000089583B984E886BF06B607FEFDCF089579
:1003D00024E826BF23B1FC01208306B607FEFDCF2B
:1003E000089584E986BF08950F931F93182F062F51
:1003F0000E94DB01802F0E94E101812F0E94E10118
:100400000E94F1011F910F9108958F929F92AF92D8
:10041000BF92CF92DF92EF92FF920F931F93CF93F1
:10042000DF9381E00E947E0087EA91E60197F1F771
:1004300000C000000E949502E7EAF1E63197F1F76B
:1004400000C000000F2EF0E6AF2EF0E0BF2EF02D22
:10045000C2E6D0E04E010894811C911C0F2EFBE6F1
:10046000EF2EF0E0FF2EF02D0E94A30280936A0091
:100470008336D1F70E94A30280936A00813321F46E
:1004800081E00E947E00F0CF8233F1F484E4B50174
:1004900042E050E09E0106E010E00E944001D8805A
:1004A000CC24F40180819601280F311DC9013093BD
:1004B000690020936800B7014AE050E00E94BC0246
:1004C000C7010E94A702D0CF833371F60E9491002A
:1004D000CBCFFF920F931F93CF93DF93082FF62E6E
:1004E000142FE9010E94DB01812F0E94E101802F7E
:1004F0000E94E1018F2D0E94E1010E94F10189EF2C
:1005000090E00197F1F700C000000E94DB01812F0D
:100510000E94E101CE010E94E8010E94F101DF91F9
:10052000CF911F910F91FF9008951BB88AB18861F8
:100530008AB980B5866880BD89E189B908955D9BD7
:10054000FECF8CB908955F9BFECF8CB10895CF93F9
:10055000DF93EC018881882331F021960E949F026D
:1005600089918823D9F78DE00E949F028AE00E943A
:100570009F02DF91CF910895FB019F01E8944230E3
:10058000C4F04532B4F44A3029F497FB1EF4909538
:1005900081959F4F642F77270E94ED02805D8A33FB
:1005A0000CF0895D8193CB010097A1F716F45DE211
:1005B00051931082C9010C94DD02DC01FC01672F0C
:1005C00071917723E1F7329704C07C916D9370832A
:1005D0006291AE17BF07C8F30895AA1BBB1B51E178
:1005E00007C0AA1FBB1FA617B70710F0A61BB70BA3
:1005F000881F991F5A95A9F780959095BC01CD0148
:060600000895F894FFCFFD
:020606002C06C0
:00000001FF
