:100000000C942A000C94DB000C94AE000C949F011D
:100010000C943C000C943C000C943C000C943C0070
:100020000C943C000C943C000C943C000C943C0060
:100030000C943C000C943C000C9471000C943C001B
:100040000C943C000C943C000C943C000C943C0040
:100050000C943C0011241FBECFE5D4E0DEBFCDBF21
:1000600010E0A0E6B0E001C01D92A637B107E1F7AD
:100070000E945F000C947D030C9400008FE085BF0C
:1000800080EC8BBF8FB5816A8FBD8EB589608EBDC8
:1000900084E090E09BBD8ABD88B7846088BF85B549
:1000A0008E6085BD8AE083BD89B7806889BF089569
:1000B00087B1826487B986B1886686B9089580EF72
:1000C0008ABB8FEF84BB81B38C6A81BB1BBA15BA24
:1000D00012BA80E882BB0E943E000E9458007894C9
:1000E000FFCF1F920F920FB60F9211242F933F93C1
:1000F0004F938F939F93AF93BF93809162009091A2
:100100006300009781F410926B0010926A0080E007
:1001100090E0DC018093660090936700A0936800F4
:10012000B09369000FC024B130E030936B0020938E
:100130006A0045B1942F80E0822B932B90936B0043
:1001400080936A00BF91AF919F918F914F913F91A2
:100150002F910F900FBE0F901F9018951F920F9226
:100160000FB60F9211248F939F938091640090910A
:10017000650001969093650080936400833091053B
:1001800024F010926500109264009F918F910F905F
:100190000FBE0F901F901895009729F480E882BB3E
:1001A00088E686B908958130910521F480E282BB0A
:1001B00088EE86B908951F920F920FB60F92112400
:1001C0002F933F934F935F936F937F938F939F935F
:1001D000AF93BF93EF93FF93809162009091630080
:1001E000019690936300809362008230910524F021
:1001F00010926300109262008091620090916300FF
:100200000E94CC00FF91EF91BF91AF919F918F9190
:100210007F916F915F914F913F912F910F900FBE02
:100220000F901F901895CF93DF93EEE6F0E0EF016B
:1002300028962AE030E0B9010E94560381939193F9
:10024000862F972FEC17FD07B1F7DF91CF91089517
:100250008130910539F08230910569F00097E1F520
:1002600014BA08958FEF84BB80916A0090916B005F
:100270000E94130108958FEF84BB60916A00709112
:100280006B00882777FD8095982F0E94670220E0F9
:1002900030E040E05FE30E94CB0220E030E040E845
:1002A0005AE30E94CB0220E030E44CE156E40E9485
:1002B000CB02262F372F482F592F209366003093DB
:1002C000670040936800509369000E943402DC018B
:1002D000CB010E941301089514BA08958430F9F0F7
:1002E000853048F4813049F1813098F0823099F0BE
:1002F000833009F512C08730C1F0883028F485308A
:1003000081F08630C1F40FC0883089F0893099F4CB
:1003100010C08FE508958BE308958FE2089586E677
:1003200008958DE608958DE7089587E008958FE795
:1003300008958FE6089580E0089586E008951F925D
:100340000F920FB60F9211242F933F934F935F9309
:100350006F937F938F939F93AF93BF93CF93DF93CD
:10036000EF93FF9315BA1BBA8091640090916500DA
:10037000009709F466C08130910539F480916A00D4
:1003800090916B000E94130131C08230910571F58C
:1003900060916A0070916B00882777FD8095982F97
:1003A0000E94670220E030E040E05FE30E94CB0261
:1003B00020E030E040E85AE30E94CB0220E030E445
:1003C0004CE156E40E94CB02262F372F482F592F9D
:1003D0002093660030936700409368005093690053
:1003E0000E943402DC01CB010E941301C0916C0019
:1003F000D0916D00FE01EE0FFF1FE259FF4F80818B
:100400000E946E0185BB87E090E08C1B9D0B21E074
:1004100030E0A90102C0440F551F8A95E2F74BBB9B
:10042000C130D10509F4AF9A80916C0090916D00B4
:10043000019664E070E00E94560390936D008093F3
:100440006C00FF91EF91DF91CF91BF91AF919F91A0
:100450008F917F916F915F914F913F912F910F906D
:100460000FBE0F901F90189504D06894B1118DC0E5
:10047000089570D088F09F5790F0B92F9927B75101
:10048000A0F0D1F0660F771F881F991F1AF0BA9558
:10049000C9F712C0B13081F077D0B1E0089574C0CF
:1004A000672F782F8827B85F39F0B93FCCF386954E
:1004B00077956795B395D9F73EF4909580957095AB
:1004C00061957F4F8F4F9F4F0895E89409C097FB28
:1004D0003EF490958095709561957F4F8F4F9F4F1B
:1004E0009923A9F0F92F96E9BB279395F69587955F
:1004F00077956795B795F111F8CFFAF4BB0F11F422
:1005000060FF1BC06F5F7F4F8F4F9F4F16C08823C8
:1005100011F096E911C0772321F09EE8872F762FFE
:1005200005C0662371F096E8862F70E060E02AF03F
:100530009A95660F771F881FDAF7880F969587952B
:1005400097F9089557FD9058440F551F59F05F3F94
:1005500071F04795880F97FB991F61F09F3F79F0E5
:1005600087950895121613061406551FF2CF469567
:10057000F1DF08C0161617061806991FF1CF8695E9
:100580007105610508940895E894BB2766277727CD
:10059000CB0197F908950BD078C069D028F06ED0C0
:1005A00018F0952309F05AC05FC01124EECFCADFBE
:1005B000A0F3959FD1F3950F50E0551F629FF00176
:1005C000729FBB27F00DB11D639FAA27F00DB11DCF
:1005D000AA1F649F6627B00DA11D661F829F222758
:1005E000B00DA11D621F739FB00DA11D621F839FDF
:1005F000A00D611D221F749F3327A00D611D231FB5
:10060000849F600D211D822F762F6A2F11249F5702
:1006100050408AF0E1F088234AF0EE0FFF1FBB1F25
:10062000661F771F881F91505040A9F79E3F5105C4
:1006300070F014C0AACF5F3FECF3983EDCF38695D0
:1006400077956795B795F795E7959F5FC1F7FE2B6F
:10065000880F911D9695879597F9089597F99F674B
:1006600080E870E060E008959FEF80EC089500243A
:100670000A941616170618060906089500240A9407
:1006800012161306140605060895092E0394000C8D
:1006900011F4882352F0BB0F40F4BF2B11F460FF1C
:1006A00004C06F5F7F4F8F4F9F4F089597FB092EB8
:1006B00007260AD077FD04D00CD006D000201AF40B
:1006C000709561957F4F0895F6F7909581959F4FAE
:1006D0000895AA1BBB1B51E107C0AA1FBB1FA61789
:1006E000B70710F0A61BB70B881F991F5A95A9F7DB
:0E06F00080959095BC01CD010895F894FFCF40
:00000001FF
