:100000000C942A000C943E000C9459000C943C0073
:100010000C943C000C943C000C943C000C943C0070
:100020000C943C000C943C000C943C000C943C0060
:100030000C943C000C943C000C943C000C943C0050
:100040000C943C000C943C000C943C000C943C0040
:100050000C943C0011241FBECFE5D4E0DEBFCDBF21
:1000600010E0A0E6B0E001C01D92A436B107E1F7B0
:100070000E94DC000C9413010C9400001F920F925C
:100080000FB60F9211248F939F93829B07C0839B7F
:1000900005C092B380E2892782BB04C092B380E19D
:1000A000892782BB9F918F910F900FBE0F901F9059
:1000B00018951F920F920FB60F9211248F93829B67
:1000C00002C0839903C082B3805882BB8F910F9086
:1000D0000FBE0F901F9018958D9A80E22FE33DE0A0
:1000E00043E0215030404040E1F700C0000082BBB7
:1000F0002FE33DE043E0215030404040E1F700C0B5
:10010000000012BAEBCF81B3806B81BB20E890E294
:1001100080E122BB4FE35DE063E04150504060402E
:10012000E1F700C0000092BB4FE35DE063E04150A7
:1001300050406040E1F700C0000082BB4FE35DE04B
:1001400063E0415050406040E1F700C00000E1CF63
:1001500081B3846B81BB8A9880E1829B02C082BBA1
:10016000FCCF12BAFACF80EB81BB83E085BF80E47D
:100170008BBF7894089581B38C6B81BB80E120E8BC
:1001800090E2829B02C082BBFCCF839B02C092BBE9
:10019000F8CF829B04C0839B02C022BBF2CF12BA6D
:1001A000F0CF80EB81BB81B38C6B81BB8FE085BFCF
:1001B00080EC8BBF789408950E94D100FFCF81B36B
:1001C0008C6B81BB20E290E180B38823E9F3829BB2
:1001D0000DC080B3877F51F0EBE5F4E43197F1F780
:1001E00000C0000082B3892782BBEECF839B0DC085
:1001F00080B38B7F51F0EBE5F4E43197F1F700C069
:10020000000082B3822782BBDFCF829BDDCF839B3E
:10021000DBCFEBE5F4E43197F1F700C0000082B3E7
:0A022000805882BBD1CFF894FFCFC5
:00000001FF
