:100000000C942A000C943E000C9458000C943C0074
:100010000C943C000C943C000C943C000C943C0070
:100020000C943C000C943C000C943C000C943C0060
:100030000C943C000C943C000C943C000C943C0050
:100040000C943C000C943C000C943C000C943C0040
:100050000C943C0011241FBECFE5D4E0DEBFCDBF21
:1000600010E0A0E6B0E001C01D92A436B107E1F7B0
:100070000E9402010C9439010C9400001F920F920F
:100080000FB60F9211248F939F93829B07C0839B7F
:1000900005C092B380E1892782BB03C082B3805838
:1000A00082BB9F918F910F900FBE0F901F9018955C
:1000B0001F920F920FB60F9211248F939F93829BE2
:1000C00002C0839904C092B380E2892782BB9F91CA
:1000D0008F910F900FBE0F901F9018958D9A80E210
:1000E0002FE33DE043E0215030404040E1F700C0C5
:1000F000000082BB2FE33DE043E021503040404010
:10010000E1F700C0000012BAEBCF81B3806B81BB76
:1001100020E190E280E822BB4FE35DE063E04150E4
:1001200050406040E1F700C0000092BB4FE35DE04B
:1001300063E0415050406040E1F700C0000082BBE6
:100140004FE35DE063E0415050406040E1F700C0A4
:100150000000E1CF81B3846B81BB80E8829B02C049
:1001600082BBFCCF12BAFACF8F9A83E085BF80E4BE
:100170008BBF7894089581B38C6B81BB90E220E1B2
:10018000829906C0839904C0829BFACF839BF8CFE3
:10019000829B0FC0839B0DC082B3822782BB4FE539
:1001A0005AEE60E0415050406040E1F700C000006E
:1001B000E7CF839B0DC082B3892782BB4FE55AEE00
:1001C00060E0415050406040E1F700C00000D8CFEF
:1001D000829BD6CF82B3805882BB4FE55AEE60E057
:1001E000415050406040E1F700C00000C9CF80EBB3
:1001F00081BB81B38C6B81BB8FE085BF80EC8BBFF3
:10020000789408950E94F700FFCF81B38C6B81BB77
:1002100090E120E280B38823E9F3829B0DC080B394
:10022000877F51F0EBE5F4E43197F1F700C000006F
:1002300082B3805882BBEECF839B0DC080B38B7F8F
:1002400051F0EBE5F4E43197F1F700C0000082B320
:10025000822782BBDFCF829BDDCF839BDBCFEBE5A9
:10026000F4E43197F1F700C0000082B3892782BB24
:06027000D1CFF894FFCF8E
:00000001FF
