:100000000C942A000C944A000C9434000C94340094
:100010000C9434000C9434000C9434000C94340090
:100020000C9434000C9434000C9434000C94340080
:100030000C9434000C9434000C9434000C94340070
:100040000C9434000C9434000C9434000C94340060
:100050000C94340011241FBECFE5D4E0DEBFCDBF29
:100060000E945C000C949A000C94000081B38C6B8D
:1000700081BB80E120E890E2829B02C082BBFCCF82
:10008000839B02C092BBF8CF809B02C022BBF4CFFF
:1000900012BAF2CF1F920F920FB60F9211248F93C4
:1000A0009F9392B380E1892782BB9F918F910F909C
:1000B0000FBE0F901F9018950E943600FFCF8F9AA9
:1000C00080E882BBFECF81B3806B81BB20E890E2E9
:1000D00080E122BB4FE35DE063E04150504060406F
:1000E000E1F700C0000092BB4FE35DE063E04150E8
:1000F00050406040E1F700C0000082BB4FE35DE08C
:1001000063E0415050406040E1F700C00000E1CFA3
:1001100081B3846B81BB80E1829B02C082BBFCCF38
:1001200012BAFACF80EB81BB83E085BF80E48BBF3E
:0801300078940895F894FFCFC4
:00000001FF
