:100000000C942A000C9449000C94E0000C943104E8
:100010000C9447000C9447000C949C010C944700EE
:100020000C9447000C9447000C9447000C94470034
:100030000C9447000C9447000C9447000C94470024
:100040000C9447000C9447000C9447000C94470014
:100050000C94470011241FBECFE5D4E0DEBFCDBF16
:1000600010E0A0E6B0E0E0EBF2E102C005900D92F6
:10007000A23DB107D9F711E0A2EDB0E001C01D9299
:10008000AF3FB107E1F70E9472020C9456090C943D
:1000900000001F920F920FB60F9211248F939F931F
:1000A0008091DE009091DF0001969093DF008093B5
:1000B000DE009F918F910F900FBE0F901F901895AB
:1000C0008CB59DB59DBD8CBD8AB59BB589609D6382
:1000D0009BBD8ABD8FB588608FBD8EB58B608EBD90
:1000E00089B7806189BF85B58E6085BD82E083BD9B
:1000F00089B7806889BF08950F931F9389B7805887
:1001000089BF8091C4009091C500009711F480E2EE
:1001100001C082E080B981B18C7F81B986B78460EB
:1001200086BF89EF90E00197F1F700C0000084E4FA
:1001300060ED70E042E050E028ED30E006E010E0D5
:100140000E94BB057091D80060E08091D900680FD3
:10015000711D882777FD8095982F6093CC00709350
:10016000CD008093CE009093CF002FEA30E040E0A6
:1001700050E00E9463080E94740720E03FEF4FE7C1
:1001800057E40E94D90620E030E044E352E40E94A4
:10019000740620E030E040E251E40E9400086093E1
:1001A000FB017093FC018093FD019093FE0110B858
:1001B00011B816BE89B7805889BF1F910F91089555
:1001C0001F920F920FB60F9211242F933F934F93CC
:1001D0005F936F937F938F939F93AF93BF93EF93AF
:1001E000FF938091E4009091E50001969093E500E3
:1001F0008093E4008130910529F415BA1BBA0E945E
:100200007C0004C01092E5001092E400FF91EF9191
:10021000BF91AF919F918F917F916F915F914F911E
:100220003F912F910F900FBE0F901F901895CF9375
:10023000DF93C9EED0E08091C6009091C700BE0167
:100240004AE050E00E94C708CE010E9465068AE39A
:100250000E945D068091C8009091C900BE014AE0ED
:1002600050E00E94C708CE010E9465068AE30E9402
:100270005D068091CA009091CB00BE014AE050E03B
:100280000E94C708CE010E9465068DE00E945D06AF
:100290008AE00E945D06DF91CF910895CF93DF93AE
:1002A000C9EED0E08091F9019091FA01BE014AE0D7
:1002B00050E00E94C708CE010E9465068091F701B8
:1002C0009091F801BE014AE050E00E94C708CE01BB
:1002D0000E94650680E690E00E9465068091F50127
:1002E0009091F601BE014AE050E00E94C708CE019D
:1002F0000E94650682E690E00E9465068DE00E94FD
:100300005D068AE00E945D06DF91CF910895CF934C
:10031000DF93E9E6F1E0EF0128962AE030E0B90149
:100320000E94820881939193862F972FEC17FD07E7
:10033000B1F7DF91CF9108951F920F920FB60F92F0
:1003400011242F933F934F935F936F937F938F93DA
:100350009F93AF93BF93EF93FF938091DE009091B3
:10036000DF00009709F07AC08091CA009091CB001D
:1003700001969093CB008093CA008C33910509F0CD
:1003800043C08091C8009091C90001969093C90024
:100390008093C8001092CB001092CA008C33910554
:1003A00099F58091C6009091C70001969093C7007F
:1003B0008093C6001092C9001092C8008831910540
:1003C00029F41092C7001092C60011C08091C60097
:1003D0009091C7008D30910544F00C97880F991FBC
:1003E0009093E3008093E2000FC0009739F488E116
:1003F00090E09093E3008093E20006C0880F991F7D
:100400009093E3008093E2004091C6005091C700B2
:1004100084E690E0489F9001499F300D589F300D31
:1004200011248091C8009091C900820F931F90936E
:10043000D7008093D6000E94870181E090E09093DE
:10044000E1008093E0008091E4009091E50081302C
:10045000910521F415BA1BBA0E947C008091E2003C
:100460009091E300009769F092B380EB892782BBFB
:100470008091E2009091E30001979093E3008093D4
:10048000E200FF91EF91BF91AF919F918F917F918A
:100490006F915F914F913F912F910F900FBE0F90F1
:1004A0001F9018952CE030E03093F4012093F30175
:1004B0002AE030E0B9010E9482089093F60180930F
:1004C000F501CB01B9010E9482089093F801809355
:1004D000F701CB01B9010E9482089093FA01809341
:1004E000F90108952F923F924F925F926F927F92FF
:1004F0008F929F92AF92BF92CF92DF92EF92FF9234
:100500000F931F93CF93DF9380EF8ABB8FEF84BB52
:1005100081B38C6B81BB8FE085BF80EC8BBF89EF93
:1005200090E00197F1F700C000000E9460000E9477
:10053000530678940F2EF3E74F2EF1E05F2EF02D47
:100540000F2EF5E6EF2EF0E0FF2EF02DC6EED0E0F8
:100550008E010F5F1F4F0F2EF2E8CF2EF0E0DF2E3F
:10056000F02D0F2EF3EAAF2EF0E0BF2EF02D0F2E60
:10057000F6EB2F2EF0E03F2EF02D0F2EF5E96F2E2B
:10058000F0E07F2EF02D0F2EF6E78F2EF0E09F2E5D
:10059000F02D8091E4009091E5000097A1F4209166
:1005A000DE003091DF00121613066CF08091E0003F
:1005B0009091E100009769F30E9417011092E10009
:1005C0001092E00033C08130910581F58091DE000A
:1005D0009091DF00181619068CF18091E00090913F
:1005E000E1000097B1F26091FB017091FC018091F4
:1005F000FD019091FE010E944107A2012AE030E036
:100600000E94E8086091FB017091FC018091FD015E
:100610009091FE010E944107DC01CB010E94520231
:100620000E944E011092E1001092E0008091DE00E5
:100630009091DF00181619060CF0ABCF1092C7008E
:100640001092C6001092C9001092C8001092CB0000
:100650001092CA00C7010E9465068DE00E945D06E7
:100660008AE00E945D060E94610688830E946106FE
:10067000F8018083CE010E94A908909372018093B3
:1006800071018831910554F0C4010E9465068DE026
:100690000E945D068AE00E945D067BCF9093C700B2
:1006A0008093C60010927201109271011882F801B5
:1006B000108287EA91E60197F1F700C00000C601B9
:1006C0000E9465068DE00E945D068AE00E945D063C
:1006D0000E94610688830E946106F8018083CE0132
:1006E0000E94A90890937201809371018C33910547
:1006F00054F0C3010E9465068DE00E945D068AE009
:100700000E945D0646CF9093C9008093C800109266
:100710007201109271011882F801108287EA91E645
:100720000197F1F700C00000C5010E9465068DE049
:100730000E945D068AE00E945D060E946106888331
:100740000E946106F8018083CE010E94A90890935F
:100750007201809371018C33910554F0C1010E94A4
:1007600065068DE00E945D068AE00E945D0611CF5D
:100770009093CB008093CA00109272011092710185
:100780001882F801108287EA91E60197F1F700C01C
:1007900000001092DF001092DE00FBCE873071F176
:1007A000883070F4833011F1843028F48130D1F135
:1007B0008230D0F417C08530E9F08630E8F418C0F4
:1007C0008B3021F18C3028F48930E1F08A30E0F46C
:1007D00017C08D30F9F08D30D8F08E30E9F08F30C1
:1007E000F9F41CC08FE508958BE308958FE2089516
:1007F00086E608958DE608958DE7089587E00895CB
:100800008FE708958FE6089587E708958CE70895A8
:1008100089E508958EE3089589E7089581E70895AD
:1008200080E0089586E008958091F3010E94CE0350
:1008300085BB80E88BBB8091F5010E94CE0385BB10
:1008400080E48BBB8091F7010E94CE0385BB80E2E0
:100850008BBB8091F9010E94CE0385BB80E18BBBED
:1008600008951F920F920FB60F9211242F933F936A
:100870004F935F936F937F938F939F93AF93BF93A8
:10088000CF93DF93EF93FF938091E4009091E50085
:100890000097D1F515BA1BBAC091D200D091D30000
:1008A000FE01EE0FFF1FE759FE4F80810E94CE032D
:1008B00085BBC230D10569F48091CA0080FD09C0B2
:1008C0008091E4009091E500009719F485B3805879
:1008D00085BB8091D2009091D30027E030E0281BA7
:1008E000390B41E050E0BA0102C0660F771F2A952C
:1008F000E2F76BBB019664E070E00E94820890937F
:10090000D3008093D2002DC015BA1BBAC091D2007B
:10091000D091D300FE01EE0FFF1FED50FE4F8081FE
:100920000E94CE0385BBC330D10509F4AF9A8091F4
:10093000D2009091D30027E030E0281B390B41E032
:1009400050E0BA0102C0660F771F2A95E2F76BBB31
:10095000019664E070E00E9482089093D300809337
:10096000D200FF91EF91DF91CF91BF91AF919F9115
:100970008F917F916F915F914F913F912F910F9048
:100980000FBE0F901F901895982F06B607FEFDCF4B
:1009900081B1887F891709F480E0089594EA96BFB1
:1009A0000E94C40490E0089584E986BF089583B945
:1009B00084E886BF862F0E94C40490E00895CF93F8
:1009C000DF93EC01862F4295440F440F407C44682E
:1009D00046BF0E94C404882329F483B1888320E0A1
:1009E00030E002C02FEF3FEF822F932FDF91CF91A6
:1009F000089594B39C7F94BB95B3936095BB882373
:100A000011F480E201C082E080B981B18C7F81B9AC
:100A100086B7846086BF089586B78B7F86BF10B87F
:100A200081B18C7F81B984B38C7F84BB85B38C7F8B
:100A300085BB0895DF92EF92FF920F931F93CF93A0
:100A4000DF93082F162FD72E7A0188E00E94CE045C
:100A5000009729F00E94D4042FEF3FEF29C0802F88
:100A6000880F68E10E94D704009721F41E141F0428
:100A700034F01AC00E94D4042FEF3FEF19C0012FA9
:100A80001D2DC0E0D0E0F80181918F0168E20E9445
:100A9000D704009729F00E94D4042FEF3FEF08C03D
:100AA0002196CE15DF057CF30E94D40420E030E0CF
:100AB000822F932FDF91CF911F910F91FF90EF9095
:100AC000DF900895DF92EF92FF920F931F93CF93E1
:100AD000DF93D82E7B018A0188E00E94CE04009724
:100AE00029F00E94D4042FEF3FEF3BC08D2D880FDB
:100AF000816060E40E94D704009741F401501040E7
:100B00001016110644F0C0E0D0E019C00E94D404D1
:100B10002FEF3FEF26C0C0E0D0E0C7018C0F9D1F34
:100B200060E541E00E94DF04009729F00E94D404B0
:100B30002FEF3FEF16C02196C017D10774F3C701FE
:100B40008C0F9D1F68E540E00E94DF04009729F0AC
:100B50000E94D4042FEF3FEF04C00E94D40420E091
:100B600030E0822F932FDF91CF911F910F91FF9053
:100B7000EF90DF9008957F928F929F92AF92BF92F5
:100B8000CF92DF92EF92FF920F931F93CF93DF9359
:100B9000B82EA62E772E7A016901480188E00E94BE
:100BA000CE04009729F00E94D4042FEF3FEF6BC0D2
:100BB0008B2D880F68E10E94D704009721F41E1442
:100BC0001F0434F01AC00E94D4042FEF3FEF5BC023
:100BD0000A2D172DC0E0D0E0F80181918F0168E265
:100BE0000E94D704009729F00E94D4042FEF3FEF12
:100BF0004AC02196CE15DF057CF380E10E94CE0429
:100C0000009729F00E94D4042FEF3FEF3CC08B2DBA
:100C1000880F816060E40E94D704009749F4840142
:100C2000015010401016110644F0C0E0D0E019C089
:100C30000E94D4042FEF3FEF26C0C0E0D0E0C601F1
:100C40008C0F9D1F60E541E00E94DF04009729F0B2
:100C50000E94D4042FEF3FEF16C02196C017D10792
:100C600074F3C6018C0F9D1F68E540E00E94DF040D
:100C7000009729F00E94D4042FEF3FEF04C00E9498
:100C8000D40420E030E0822F932FDF91CF911F9189
:100C90000F91FF90EF90DF90CF90BF90AF909F901B
:100CA0008F907F9008951BB88AB188618AB980B50A
:100CB000866880BD89E189B908955D9BFECF8CB9B6
:100CC00008955F9BFECF8CB10895CF93DF93EC0125
:100CD0008881882331F021960E945D0689918823BE
:100CE000D9F7DF91CF9108955058BB27AA270ED08E
:100CF0004DC13ED130F043D120F031F49F3F11F48B
:100D00001EF433C10EF4E095E7FB29C1E92F4FD162
:100D100080F3BA17620773078407950718F071F418
:100D20009EF567C10EF4E0950B2EBA2FA02D0B0196
:100D3000B90190010C01CA01A0011124FF27591B20
:100D400099F0593F50F4503E68F11A16F040A22F26
:100D5000232F342F4427585FF3CF46953795279597
:100D6000A795F0405395C9F77EF41F16BA0B620B96
:100D7000730B840BBAF09150A1F0FF0FBB1F661FDD
:100D8000771F881FC2F70EC0BA0F621F731F841F20
:100D900048F4879577956795B795F7959E3F08F046
:100DA000B3CF9395880F08F09927EE0F9795879505
:100DB00008950CD0EBC0E3D040F0DAD030F021F44D
:100DC0005F3F19F0CCC0511115C1CFC0F0D098F3DE
:100DD0009923C9F35523B1F3951B550BBB27AA27BC
:100DE00062177307840738F09F5F5F4F220F331F2E
:100DF000441FAA1FA9F333D00E2E3AF0E0E830D0FA
:100E000091505040E695001CCAF729D0FE2F27D0FC
:100E1000660F771F881FBB1F261737074807AB07CA
:100E2000B0E809F0BB0B802DBF01FF2793585F4F3F
:100E30002AF09E3F510568F092C0DCC05F3FECF3A2
:100E4000983EDCF3869577956795B795F7959F5F04
:100E5000C9F7880F911D9695879597F90895E1E058
:100E6000660F771F881FBB1F621773078407BA07B7
:100E700020F0621B730B840BBA0BEE1F88F7E09512
:100E8000089504D06894B111B5C0089598D088F041
:100E90009F5790F0B92F9927B751A0F0D1F0660F66
:100EA000771F881F991F1AF0BA95C9F712C0B13081
:100EB00081F09FD0B1E008959CC0672F782F8827DC
:100EC000B85F39F0B93FCCF3869577956795B395C0
:100ED000D9F73EF490958095709561957F4F8F4F2F
:100EE0009F4F0895E89409C097FB3EF49095809534
:100EF000709561957F4F8F4F9F4F9923A9F0F92FE0
:100F000096E9BB279395F695879577956795B7955D
:100F1000F111F8CFFAF4BB0F11F460FF1BC06F5F43
:100F20007F4F8F4F9F4F16C0882311F096E911C055
:100F3000772321F09EE8872F762F05C0662371F076
:100F400096E8862F70E060E02AF09A95660F771F8A
:100F5000881FDAF7880F9695879597F9089597F97E
:100F60009F6780E870E060E008959FEF80EC08954F
:100F700000240A9416161706180609060895002478
:100F80000A9412161306140605060895092E0394F2
:100F9000000C11F4882352F0BB0F40F4BF2B11F466
:100FA00060FF04C06F5F7F4F8F4F9F4F089557FDC5
:100FB0009058440F551F59F05F3F71F04795880FC7
:100FC00097FB991F61F09F3F79F08795089512165E
:100FD00013061406551FF2CF4695F1DF08C016160A
:100FE00017061806991FF1CF8695710561050894BB
:100FF0000895E894BB2766277727CB0197F90895D2
:101000000BD0C4CFB5DF28F0BADF18F0952309F074
:10101000A6CFABCF1124EECFCADFA0F3959FD1F3BB
:10102000950F50E0551F629FF001729FBB27F00D96
:10103000B11D639FAA27F00DB11DAA1F649F6627EB
:10104000B00DA11D661F829F2227B00DA11D621F3A
:10105000739FB00DA11D621F839FA00D611D221FF4
:10106000749F3327A00D611D231F849F600D211DD8
:10107000822F762F6A2F11249F5750408AF0E1F07B
:1010800088234AF0EE0FFF1FBB1F661F771F881FC4
:1010900091505040A9F79E3F510570F060CFAACF04
:1010A0005F3FECF3983EDCF3869577956795B795AF
:1010B000F795E7959F5FC1F7FE2B880F911D9695D9
:1010C000879597F90895629FD001739FF001829FE1
:1010D000E00DF11D649FE00DF11D929FF00D839FC7
:1010E000F00D749FF00D659FF00D9927729FB00D64
:1010F000E11DF91F639FB00DE11DF91FBD01CF0177
:101100001124089597FB092E07260AD077FD04D0F5
:101110000CD006D000201AF4709561957F4F089589
:10112000F6F7909581959F4F0895AA1BBB1B51E13F
:1011300007C0AA1FBB1FA617B70710F0A61BB70B47
:10114000881F991F5A95A9F780959095BC01CD01EC
:101150000895FC0188279927E89421912032E9F32A
:10116000293010F02E30C8F32B3241F02D3239F4F3
:10117000689404C00E941C09820F911D2191205384
:101180002A30C0F31EF4909581959F4F0895FB017E
:101190009F01E8944230C4F04532B4F44A3029F457
:1011A00097FB1EF4909581959F4F642F77270E949F
:1011B0009508805D8A330CF0895D8193CB0100979F
:1011C000A1F716F45DE251931082C9010C94240931
:1011D000FA01CF93FF93EF93223044F1253234F597
:1011E000C22FE894CA3049F497FB3EF4909580955D
:1011F000709561957F4F8F4F9F4F2C2F332744273A
:101200005527FF93EF930E943409EF91FF91605DA2
:101210006A330CF0695D6193B901CA016050704096
:101220008040904051F716F4CDE2C19310828F9127
:101230009F91CF910C9424097AE0979F902D879FDE
:10124000802D910D11240895DC01FC01672F71910F
:101250007723E1F7329704C07C916D93708362919C
:10126000AE17BF07C8F30895A1E21A2EAA1BBB1B35
:10127000FD010DC0AA1FBB1FEE1FFF1FA217B30762
:10128000E407F50720F0A21BB30BE40BF50B661F78
:10129000771F881F991F1A9469F76095709580953C
:1012A00090959B01AC01BD01CF010895F894FFCF4B
:1012B0002E00204300456E74657220686F7572734E
:1012C00020284848290057726F6E6720686F757232
:1012D0007300456E746572206D696E757465732058
:1012E000284D4D290057726F6E67206D696E7574B9
:1012F000657300456E746572207365636F6E647309
:1013000020285353290057726F6E67207365636FEF
:101310006E64730001000B003B0032000E01000000
:021320002C0699
:00000001FF
