:100000000C942A000C9447000C9447000C94840133
:100010000C9447000C9447000C94E9000C944700A2
:100020000C9447000C9447000C9447000C94470034
:100030000C9447000C9447000C9447000C94470024
:100040000C9447000C9447000C9447000C94BD009E
:100050000C94470011241FBECFE5D4E0DEBFCDBF16
:1000600010E0A0E6B0E0E0EBF4E002C005900D92F5
:10007000AA36B107D9F710E0AAE6B0E001C01D9298
:10008000AE3FB107E1F70E9465000C9456020C9454
:1000900000008CB59DB59DBD8CBD8AB59BB58960B2
:1000A0009D639BBD8ABD8FB588608FBD8EB58B600B
:1000B0008EBD89B7806189BF85B58E6085BD8AE0B8
:1000C00083BD89B7806889BF08950F931F93CF932D
:1000D000DF9380EF8ABB8FEF84BB81B38C6B81BBD6
:1000E0008FE085BF80EC8BBF0E9449000E94DD013C
:1000F000789400E610E0CCE7D0E08091FC0090918D
:10010000FD0081309105C1F5C8010E94EF01809189
:100110006C0090916D00BE014AE050E00E94250203
:10012000CE010E94EF018AE30E94E70180916E00F8
:1001300090916F00BE014AE050E00E942502CE017E
:100140000E94EF018AE30E94E70180917000909184
:100150007100BE014AE050E00E942502CE010E94DB
:10016000EF018DE00E94E7018AE00E94E701109212
:10017000FD001092FC00C1CFFFCF1F920F920FB66F
:100180000F9211248F939F93809170009091710032
:10019000019690937100809370009F918F910F90C2
:1001A0000FBE0F901F901895CF93DF93E4E7F0E018
:1001B000EF0128962AE030E0B9010E94FE01819308
:1001C0009193862F972FEC17FD07B1F7DF91CF9111
:1001D00008951F920F920FB60F9211242F933F9301
:1001E0004F935F936F937F938F939F93AF93BF933F
:1001F000EF93FF938091700090917100019690931E
:100200007100809370008C339105E9F480916E0049
:1002100090916F00019690936F0080936E00109202
:100220007100109270008C33910569F480916C001C
:1002300090916D00019690936D0080936C001092E8
:100240006F0010926E0040916C0050916D0084E63A
:1002500090E0489F9001499F300D589F300D112428
:1002600080916E0090916F00820F931F90937300A6
:10027000809372000E94D40081E090E09093FD0092
:100280008093FC00FF91EF91BF91AF919F918F916F
:100290007F916F915F914F913F912F910F900FBE82
:1002A0000F901F9018958430F9F0853048F4813014
:1002B00049F1813098F0823099F0833009F512C00D
:1002C0008730C1F0883028F4853081F08630C1F461
:1002D0000FC0883089F0893099F410C08FE50895F7
:1002E0008BE308958FE2089586E608958DE60895DC
:1002F0008DE7089587E008958FE708958FE60895C4
:1003000080E0089586E008951F920F920FB60F9235
:1003100011242F933F934F935F936F937F938F930A
:100320009F93AF93BF93CF93DF93EF93FF9315BA50
:100330001BBAC0916A00D0916B00FE01EE0FFF1F47
:10034000EC58FF4F80810E94530185BBC230D1051C
:1003500039F48091700080FD03C085B3805885BB5F
:1003600080916A0090916B0027E030E0281B390BE8
:1003700041E050E0BA0102C0660F771F2A95E2F70C
:100380006BBB019664E070E00E94FE0190936B00ED
:1003900080936A00FF91EF91DF91CF91BF91AF9170
:1003A0009F918F917F916F915F914F913F912F918D
:1003B0000F900FBE0F901F9018951BB88AB18861DF
:1003C0008AB980B5866880BD89E189B908955D9B49
:1003D000FECF8CB908955F9BFECF8CB10895CF936B
:1003E000DF93EC018881882331F021960E94E70198
:1003F00089918823D9F7DF91CF91089597FB092E32
:1004000007260AD077FD04D00CD006D000201AF4BD
:10041000709561957F4F0895F6F7909581959F4F60
:100420000895AA1BBB1B51E107C0AA1FBB1FA6173B
:10043000B70710F0A61BB70B881F991F5A95A9F78D
:1004400080959095BC01CD010895FB019F01E89432
:100450004230C4F04532B4F44A3029F497FB1EF41C
:10046000909581959F4F642F77270E941102805DA0
:100470008A330CF0895D8193CB010097A1F716F4C4
:100480005DE251931082C9010C944602DC01FC012B
:10049000672F71917723E1F7329704C07C916D93B8
:1004A00070836291AE17BF07C8F30895F894FFCF29
:0A04B00054696D6520697320000097
:00000001FF
