:100000000C942A000C94DF000C94FD000C94C603A1
:100010000C9447000C9447000C9494010C944700F6
:100020000C9447000C9447000C9447000C94470034
:100030000C9447000C9447000C9447000C94470024
:100040000C9447000C9447000C9447000C94D50086
:100050000C94470011241FBECFE5D4E0DEBFCDBF16
:1000600010E0A0E6B0E0EAEDF1E102C005900D92EB
:10007000A23DB107D9F711E0A2EDB0E001C01D9299
:10008000AD3FB107E1F70E945D020C94EB080C94C0
:100090000000CF93DF93C9EED0E08091F7019091FB
:1000A000F801BE014AE050E00E945C08CE010E94C7
:1000B000FA058091F5019091F601BE014AE050E009
:1000C0000E945C08CE010E94FA0580E690E00E9442
:1000D000FA058091F3019091F401BE014AE050E0ED
:1000E0000E945C08CE010E94FA0582E690E00E9420
:1000F000FA058DE00E94F2058AE00E94F205DF9188
:10010000CF910895CF93DF93C9EED0E08091C600E0
:100110009091C700BE014AE050E00E945C08CE0109
:100120000E94FA058AE30E94F2058091C80090912E
:10013000C900BE014AE050E00E945C08CE010E9466
:10014000FA058AE30E94F2058091CA009091CB00E3
:10015000BE014AE050E00E945C08CE010E94FA0510
:100160008DE00E94F2058AE00E94F205DF91CF91B6
:1001700008958CB59DB59DBD8CBD8AB59BB5896034
:100180009D639BBD8ABD8FB588608FBD8EB58B602A
:100190008EBD89B7806189BF85B58E6085BD82E0DF
:1001A00083BD89B7806889BF08951F920F920FB6EB
:1001B0000F9211240F900FBE0F901F9018951F9251
:1001C0000F920FB60F9211248F939F938091DE00B0
:1001D0009091DF0001969093DF008093DE008130E4
:1001E000910521F01092DF001092DE009F918F9117
:1001F0000F900FBE0F901F9018951F920F920FB681
:100200000F9211248F939F938091E4009091E500C9
:1002100001969093E5008093E4008130910521F0F0
:100220001092E5001092E4009F918F910F900FBE05
:100230000F901F9018950F931F9389B7805889BF0F
:100240008091C4009091C500009711F480E201C034
:1002500082E080B981B18C7F81B986B7846086BF26
:1002600089EF90E00197F1F700C0000084E460EDB1
:1002700070E042E050E028ED30E006E010E00E943F
:1002800050057091D80060E08091D900680F711D11
:10029000882777FD8095982F6093CC007093CD00D0
:1002A0008093CE009093CF002FEA30E040E050E002
:1002B0000E94F8070E94090720E03FEF4FE757E44C
:1002C0000E946E0620E030E044E352E40E940906FA
:1002D00020E030E040E251E40E9495076093F9018C
:1002E0007093FA018093FB019093FC0110B811B850
:1002F00016BE89B7805889BF1F910F910895CF937B
:10030000DF93E9E6F1E0EF0128962AE030E0B90159
:100310000E94170881939193862F972FEC17FD0762
:10032000B1F7DF91CF9108951F920F920FB60F9200
:1003300011242F933F934F935F936F937F938F93EA
:100340009F93AF93BF93EF93FF938091DE009091C3
:10035000DF00009709F06DC08091CA009091CB003A
:1003600001969093CB008093CA008C33910509F0DD
:1003700043C08091C8009091C90001969093C90034
:100380008093C8001092CB001092CA008C33910564
:1003900099F58091C6009091C70001969093C7008F
:1003A0008093C6001092C9001092C8008831910550
:1003B00029F41092C7001092C60011C08091C600A7
:1003C0009091C7008D30910544F00C97880F991FCC
:1003D0009093E3008093E2000FC0009739F488E126
:1003E00090E09093E3008093E20006C0880F991F8D
:1003F0009093E3008093E2004091C6005091C700C3
:1004000084E690E0489F9001499F300D589F300D41
:1004100011248091C8009091C900820F931F90937E
:10042000D7008093D6000E947F0115BA1BBA0E94A4
:100430001B018091E2009091E300009769F092B374
:1004400080EB892782BB8091E2009091E3000197C5
:100450009093E3008093E200FF91EF91BF91AF9101
:100460009F918F917F916F915F914F913F912F91CC
:100470000F900FBE0F901F9018952CE030E0309336
:10048000F2012093F1012AE030E0B9010E9417083F
:100490009093F4018093F301CB01B9010E941708F6
:1004A0009093F6018093F501CB01B9010E941708E2
:1004B0009093F8018093F70108952F923F924F9205
:1004C0005F926F927F928F929F92AF92BF92CF92E4
:1004D000DF92EF92FF920F931F93CF93DF9380EF02
:1004E0008ABB8FEF84BB81B38C6B81BB8FE085BFF0
:1004F00080EC8BBF89EF90E00197F1F700C000001E
:100500000E94B9000E94E805789401E711E00F2EDF
:10051000F5E6CF2EF0E0DF2EF02DC6EED0E07E0126
:100520000894E11CF11C0F2EF2E8AF2EF0E0BF2E74
:10053000F02D0F2EF3EA8F2EF0E09F2EF02D0F2ED0
:10054000F6EB2F2EF0E03F2EF02D0F2EF5E94F2E7B
:10055000F0E05F2EF02D0F2EF6E76F2EF0E07F2EED
:10056000F02D8091E4009091E500009719F40E942D
:1005700082001FC06091F9017091FA018091FB0126
:100580009091FC010E94D606A8012AE030E00E946A
:100590007D086091F9017091FA018091FB019091C1
:1005A000FC010E94D606DC01CB010E943D020E94A4
:1005B00049008091DE009091DF008130910589F63D
:1005C000C6010E94FA058DE00E94F2058AE00E94B1
:1005D000F2050E94F60588830E94F605F7018083E4
:1005E000CE010E943E089093C7008093C6008831D8
:1005F000910554F0C3010E94FA058DE00E94F205B6
:100600008AE00E94F205ADCF87EA91E60197F1F703
:1006100000C00000C5010E94FA058DE00E94F205AD
:100620008AE00E94F2050E94F60588830E94F60582
:10063000F7018083CE010E943E089093C900809309
:10064000C8008C33910554F0C2010E94FA058DE078
:100650000E94F2058AE00E94F20583CF87EA91E6C4
:100660000197F1F700C00000C4010E94FA058DE077
:100670000E94F2058AE00E94F2050E94F605888336
:100680000E94F605F7018083CE010E943E089093F8
:10069000CB008093CA008C33910554F0C1010E94B5
:1006A000FA058DE00E94F2058AE00E94F20559CF1A
:1006B00087EA91E60197F1F700C000001092DF0091
:1006C0001092DE004ECF873071F1883070F48330A5
:1006D00011F1843028F48130D1F18230D0F417C088
:1006E0008530E9F08630E8F418C08B3021F18C3089
:1006F00028F48930E1F08A30E0F417C08D30F9F049
:100700008D30D8F08E30E9F08F30F9F41CC08FE5D1
:1007100008958BE308958FE2089586E608958DE6A7
:1007200008958DE7089587E008958FE708958FE68F
:10073000089587E708958CE7089589E508958EE385
:10074000089589E7089581E7089580E0089586E097
:1007500008958091F1010E94630385BB80E88BBB03
:100760008091F3010E94630385BB80E48BBB809181
:10077000F5010E94630385BB80E28BBB8091F7018A
:100780000E94630385BB80E18BBB08951F920F928B
:100790000FB60F9211242F933F934F935F936F9354
:1007A0007F938F939F93AF93BF93CF93DF93EF93F9
:1007B000FF938091E4009091E5000097D1F515BA80
:1007C0001BBAC091D200D091D300FE01EE0FFF1FE3
:1007D000E759FE4F80810E94630385BBC230D1057B
:1007E00069F48091CA0080FD09C08091E400909175
:1007F000E500009719F485B3805885BB8091D2003D
:100800009091D30027E030E0281B390B41E050E005
:10081000BA0102C0660F771F2A95E2F76BBB0196FB
:1008200064E070E00E9417089093D3008093D20098
:100830002DC015BA1BBAC091D200D091D300FE01D1
:10084000EE0FFF1FEF50FE4F80810E94630385BBB8
:10085000C330D10509F4AF9A8091D2009091D300B2
:1008600027E030E0281B390B41E050E0BA0102C01C
:10087000660F771F2A95E2F76BBB019664E070E084
:100880000E9417089093D3008093D200FF91EF91BC
:10089000DF91CF91BF91AF919F918F917F916F9198
:1008A0005F914F913F912F910F900FBE0F901F902E
:1008B0001895982F06B607FEFDCF81B1887F89175E
:1008C00009F480E0089594EA96BF0E94590490E0EC
:1008D000089584E986BF089583B984E886BF862F8A
:1008E0000E94590490E00895CF93DF93EC01862F86
:1008F0004295440F440F407C446846BF0E9459040F
:10090000882329F483B1888320E030E002C02FEFF0
:100910003FEF822F932FDF91CF91089594B39C7F67
:1009200094BB95B3936095BB882311F480E201C01A
:1009300082E080B981B18C7F81B986B7846086BF3F
:10094000089586B78B7F86BF10B881B18C7F81B93F
:1009500084B38C7F84BB85B38C7F85BB0895DF9285
:10096000EF92FF920F931F93CF93DF93082F162FD1
:10097000D72E7A0188E00E946304009729F00E9434
:1009800069042FEF3FEF29C0802F880F68E10E9494
:100990006C04009721F41E141F0434F01AC00E9446
:1009A00069042FEF3FEF19C0012F1D2DC0E0D0E0EB
:1009B000F80181918F0168E20E946C04009729F090
:1009C0000E9469042FEF3FEF08C02196CE15DF0586
:1009D0007CF30E94690420E030E0822F932FDF91A6
:1009E000CF911F910F91FF90EF90DF900895DF92CC
:1009F000EF92FF920F931F93CF93DF93D82E7B013B
:100A00008A0188E00E946304009729F00E9469042B
:100A10002FEF3FEF3BC08D2D880F816060E40E9477
:100A20006C04009741F4015010401016110644F078
:100A3000C0E0D0E019C00E9469042FEF3FEF26C04C
:100A4000C0E0D0E0C7018C0F9D1F60E541E00E942F
:100A50007404009729F00E9469042FEF3FEF16C03D
:100A60002196C017D10774F3C7018C0F9D1F68E54D
:100A700040E00E947404009729F00E9469042FEF5F
:100A80003FEF04C00E94690420E030E0822F932FE2
:100A9000DF91CF911F910F91FF90EF90DF9008951C
:100AA0007F928F929F92AF92BF92CF92DF92EF92FE
:100AB000FF920F931F93CF93DF93B82EA62E772E1E
:100AC0007A016901480188E00E946304009729F0D7
:100AD0000E9469042FEF3FEF6BC08B2D880F68E1F8
:100AE0000E946C04009721F41E141F0434F01AC0F5
:100AF0000E9469042FEF3FEF5BC00A2D172DC0E065
:100B0000D0E0F80181918F0168E20E946C040097A7
:100B100029F00E9469042FEF3FEF4AC02196CE15BD
:100B2000DF057CF380E10E946304009729F00E94B6
:100B300069042FEF3FEF3CC08B2D880F816060E48C
:100B40000E946C04009749F4840101501040101673
:100B5000110644F0C0E0D0E019C00E9469042FEFF4
:100B60003FEF26C0C0E0D0E0C6018C0F9D1F60E5BE
:100B700041E00E947404009729F00E9469042FEF5D
:100B80003FEF16C02196C017D10774F3C6018C0F32
:100B90009D1F68E540E00E947404009729F00E94C0
:100BA00069042FEF3FEF04C00E94690420E030E0A9
:100BB000822F932FDF91CF911F910F91FF90EF9094
:100BC000DF90CF90BF90AF909F908F907F900895CF
:100BD0001BB88AB188618AB980B5866880BD89E111
:100BE00089B908955D9BFECF8CB908955F9BFECFB8
:100BF0008CB10895CF93DF93EC018881882331F085
:100C000021960E94F20589918823D9F7DF91CF912F
:100C100008955058BB27AA270ED04DC13ED130F0C1
:100C200043D120F031F49F3F11F41EF433C10EF490
:100C3000E095E7FB29C1E92F4FD180F3BA1762078E
:100C400073078407950718F071F49EF567C10EF4D9
:100C5000E0950B2EBA2FA02D0B01B90190010C01CC
:100C6000CA01A0011124FF27591B99F0593F50F4E4
:100C7000503E68F11A16F040A22F232F342F44273C
:100C8000585FF3CF469537952795A795F040539534
:100C9000C9F77EF41F16BA0B620B730B840BBAF004
:100CA0009150A1F0FF0FBB1F661F771F881FC2F76F
:100CB0000EC0BA0F621F731F841F48F48795779583
:100CC0006795B795F7959E3F08F0B3CF9395880F3A
:100CD00008F09927EE0F9795879508950CD0EBC0F3
:100CE000E3D040F0DAD030F021F45F3F19F0CCC00F
:100CF000511115C1CFC0F0D098F39923C9F35523F2
:100D0000B1F3951B550BBB27AA27621773078407FE
:100D100038F09F5F5F4F220F331F441FAA1FA9F3B4
:100D200033D00E2E3AF0E0E830D091505040E695A6
:100D3000001CCAF729D0FE2F27D0660F771F881F07
:100D4000BB1F261737074807AB07B0E809F0BB0BF6
:100D5000802DBF01FF2793585F4F2AF09E3F51051A
:100D600068F092C0DCC05F3FECF3983EDCF3869500
:100D700077956795B795F7959F5FC9F7880F911D90
:100D80009695879597F90895E1E0660F771F881F7C
:100D9000BB1F621773078407BA0720F0621B730B2F
:100DA000840BBA0BEE1F88F7E095089504D0689481
:100DB000B111B5C0089598D088F09F5790F0B92F21
:100DC0009927B751A0F0D1F0660F771F881F991FA0
:100DD0001AF0BA95C9F712C0B13081F09FD0B1E0D6
:100DE00008959CC0672F782F8827B85F39F0B93FE6
:100DF000CCF3869577956795B395D9F73EF49095A2
:100E00008095709561957F4F8F4F9F4F0895E8941F
:100E100009C097FB3EF490958095709561957F4F42
:100E20008F4F9F4F9923A9F0F92F96E9BB279395F0
:100E3000F695879577956795B795F111F8CFFAF400
:100E4000BB0F11F460FF1BC06F5F7F4F8F4F9F4F31
:100E500016C0882311F096E911C0772321F09EE88F
:100E6000872F762F05C0662371F096E8862F70E0F5
:100E700060E02AF09A95660F771F881FDAF7880FCF
:100E80009695879597F9089597F99F6780E870E0A0
:100E900060E008959FEF80EC089500240A941616F0
:100EA000170618060906089500240A941216130658
:100EB000140605060895092E0394000C11F48823E6
:100EC00052F0BB0F40F4BF2B11F460FF04C06F5F02
:100ED0007F4F8F4F9F4F089557FD9058440F551FD8
:100EE00059F05F3F71F04795880F97FB991F61F0AC
:100EF0009F3F79F087950895121613061406551F23
:100F0000F2CF4695F1DF08C0161617061806991F8E
:100F1000F1CF86957105610508940895E894BB2783
:100F200066277727CB0197F908950BD0C4CFB5DF9B
:100F300028F0BADF18F0952309F0A6CFABCF112423
:100F4000EECFCADFA0F3959FD1F3950F50E0551F68
:100F5000629FF001729FBB27F00DB11D639FAA270E
:100F6000F00DB11DAA1F649F6627B00DA11D661F5D
:100F7000829F2227B00DA11D621F739FB00DA11D7E
:100F8000621F839FA00D611D221F749F3327A00D38
:100F9000611D231F849F600D211D822F762F6A2FD4
:100FA00011249F5750408AF0E1F088234AF0EE0F59
:100FB000FF1FBB1F661F771F881F91505040A9F766
:100FC0009E3F510570F060CFAACF5F3FECF3983E93
:100FD000DCF3869577956795B795F795E7959F5FCD
:100FE000C1F7FE2B880F911D9695879597F9089567
:100FF000629FD001739FF001829FE00DF11D649FFD
:10100000E00DF11D929FF00D839FF00D749FF00D88
:10101000659FF00D9927729FB00DE11DF91F639F29
:10102000B00DE11DF91FBD01CF011124089597FBFB
:10103000092E07260AD077FD04D00CD006D0002058
:101040001AF4709561957F4F0895F6F79095819504
:101050009F4F0895AA1BBB1B51E107C0AA1FBB1FCE
:10106000A617B70710F0A61BB70B881F991F5A9534
:10107000A9F780959095BC01CD010895FC018827C2
:101080009927E89421912032E9F3293010F02E308D
:10109000C8F32B3241F02D3239F4689404C00E9419
:1010A000B108820F911D219120532A30C0F31EF404
:1010B000909581959F4F0895FB019F01E8944230E0
:1010C000C4F04532B4F44A3029F497FB1EF49095ED
:1010D00081959F4F642F77270E942A08805D8A336D
:1010E0000CF0895D8193CB010097A1F716F45DE2C6
:1010F00051931082C9010C94B908FA01CF93FF9360
:10110000EF93223044F1253234F5C22FE894CA30EF
:1011100049F497FB3EF490958095709561957F4FCB
:101120008F4F9F4F2C2F332744275527FF93EF9343
:101130000E94C908EF91FF91605D6A330CF0695D10
:101140006193B901CA01605070408040904051F7EE
:1011500016F4CDE2C19310828F919F91CF910C94A0
:10116000B9087AE0979F902D879F802D910D1124CB
:101170000895DC01FC01672F71917723E1F7329725
:1011800004C07C916D9370836291AE17BF07C8F362
:101190000895A1E21A2EAA1BBB1BFD010DC0AA1FB8
:1011A000BB1FEE1FFF1FA217B307E407F50720F0D0
:1011B000A21BB30BE40BF50B661F771F881F991F4B
:1011C0001A9469F760957095809590959B01AC0194
:0A11D000BD01CF010895F894FFCF90
:1011DA002E00204300456E74657220686F75727325
:1011EA0020284848290057726F6E6720686F757209
:1011FA007300456E746572206D696E75746573202F
:10120A00284D4D290057726F6E67206D696E75748F
:10121A00657300456E746572207365636F6E6473DF
:10122A0020285353290057726F6E67207365636FC6
:10123A006E64730001000B003B0032000E010000D7
:02124A002C0670
:00000001FF
