:100000000C942A000C9434000C9434000C943400AA
:100010000C9434000C9434000C9434000C94340090
:100020000C9434000C9434000C9434000C94340080
:100030000C9434000C9434000C9434000C94340070
:100040000C9434000C9434000C9434000C94340060
:100050000C94340011241FBECFE5D4E0DEBFCDBF29
:100060000E9436000C948E000C940000EF92FF92D8
:100070000F931F93CF93DF9381B38C6B81BB85B5B7
:10008000896685BD8FB5816A8FBD8EB589608EBD4D
:1000900040E050E080E090E02EEF30E0A0E0B0E003
:1000A000E1E0F0E061E070E0EE24FF24E39400E0A2
:1000B00010E008C0D701B80105C0F801B70102C0BF
:1000C000D801F701C1EED4E02197F1F700C000009C
:1000D00023BD8ABD48BD6115710549F0309789F08F
:1000E0002150304001962115310521F3EBCF309797
:1000F00041F0109739F301974F5F5F4F0097E9F296
:10010000E1CF1097F9F261157105E1F241505040CD
:100110002F5F3F4F4115510599F2D4CFF894FFCF8F
:00000001FF
