:100000000C942A000C9438010C9460010C943C0070
:100010000C943C000C943C000C94EC000C943C00C0
:100020000C943C000C943C000C943C000C943C0060
:100030000C943C000C943C000C943C000C943C0050
:100040000C943C000C943C000C943C000C94A000DC
:100050000C943C0011241FBECFE5D4E0DEBFCDBF21
:1000600010E0A0E6B0E001C01D92A637B107E1F7AD
:100070000E94E3010C9426020C9400008430F9F0F5
:10008000853048F4813049F1813098F0823099F020
:10009000833009F512C08730C1F0883028F48530EC
:1000A00081F08630C1F40FC0883089F0893099F42E
:1000B00010C08FE308958BE508958FE4089586E6D8
:1000C00008958DE608958DE7089587E008958FE7F8
:1000D00008958FE6089580E0089586E008951F93BF
:1000E00080EF8ABB8FEF84BB81B38C6081BB80E8DB
:1000F0008BBB80E00E943E0085BB10E0829B0FC05E
:100100001F5F812F0E943E0085BB8FE59AEEA0E025
:1001100081509040A040E1F700C00000EFCF839BEA
:10012000EDCF1150812F0E943E0085BB8FE59AEEE6
:10013000A0E081509040A040E1F700C00000DECF79
:100140001F920F920FB60F9211242F933F934F934C
:100150005F936F937F938F939F93AF93BF93CF934F
:10016000DF93EF93FF9315BA1BBAC0916A00D09149
:100170006B00FE01EE0FFF1FE259FF4F80810E94CE
:100180003E0085BB87E090E08C1B9D0B21E030E0BA
:10019000A90102C0440F551F8A95E2F74BBBCE015F
:1001A000019664E070E00E94FF0190936B008093E1
:1001B0006A00FF91EF91DF91CF91BF91AF919F9135
:1001C0008F917F916F915F914F913F912F910F9000
:1001D0000FBE0F901F9018951F920F920FB60F929F
:1001E00011242F933F934F935F936F937F938F933C
:1001F0009F93AF93BF93CF93DF93EF93FF9315BA82
:100200001BBAC0916A00D0916B00FE01EE0FFF1F78
:10021000E259FF4F80810E943E0085BB87E090E05D
:100220008C1B9D0B21E030E0A90102C0440F551F3B
:100230008A95E2F74BBBCE01019664E070E00E9424
:10024000FF0190936B0080936A00FF91EF91DF9123
:10025000CF91BF91AF919F918F917F916F915F915E
:100260004F913F912F910F900FBE0F901F901895B7
:100270001F920F920FB60F9211242F933F938F93DB
:100280009F9380916400909165001816190654F0B0
:1002900020916000309161002F5F3F4F30936100EB
:1002A00020936000019690936500809364009F9175
:1002B0008F913F912F910F900FBE0F901F90189527
:1002C0001F920F920FB60F9211248F939F938091DC
:1002D000660090916700181619065CF08091600026
:1002E00090916100009729F00197909361008093AD
:1002F000600080916600909167000196909367007E
:10030000809366009F918F910F900FBE0F901F906A
:100310001895CF93DF93EEE6F0E0EF0128962AE000
:1003200030E0B9010E94FF0181939193862F972FAE
:10033000EC17FD07B1F7DF91CF91089580EF8ABBED
:100340008FEF84BB81B38C6081BB8FE085BF80EC75
:100350008BBF1BBA15BA8FB5816A8FBD8EB5896008
:100360008EBD8AE090E09BBD8ABD89B7806189BF60
:1003700012BA789480916000909161000E94890186
:10038000829902C0839B0DC08091620090916300AE
:10039000019690936300809362008931910534F453
:1003A00009C0109263001092620004C010926100B4
:1003B0001092600010926500109264001092670025
:1003C00010926600D7CF0E949E0180E090E00895D1
:1003D00080EF8ABB8FEF84BB1BBA15BA83B78B60E3
:1003E00083BF84E18CBF89B7826089BF80EB81BB0A
:1003F00012BA789480E094E00E948901FFCF97FBC5
:10040000092E07260AD077FD04D00CD006D0002094
:100410001AF4709561957F4F0895F6F79095819540
:100420009F4F0895AA1BBB1B51E107C0AA1FBB1F0A
:10043000A617B70710F0A61BB70B881F991F5A9570
:10044000A9F780959095BC01CD010895F894FFCF50
:00000001FF
