:100000000C942A000C944D010C9475010C943C0046
:100010000C943C000C943C000C9401010C943C00AA
:100020000C943C000C943C000C943C000C943C0060
:100030000C943C000C943C000C943C000C943C0050
:100040000C943C000C943C000C943C000C94B500C7
:100050000C943C0011241FBECFE5D4E0DEBFCDBF21
:1000600010E0A0E6B0E001C01D92A438B107E1F7AE
:100070000E9461020C948D020C940000873071F193
:10008000883070F4833011F1843028F48130D1F15C
:100090008230D0F417C08530E9F08630E8F418C01B
:1000A0008B3021F18C3028F48930E1F08A30E0F493
:1000B00017C08D30F9F08D30D8F08E30E9F08F30E8
:1000C000F9F41CC08FE308958BE508958FE408953B
:1000D00086E608958DE608958DE7089587E00895F2
:1000E0008FE708958FE6089587E708958CE70895D0
:1000F00089E308958EE5089589E7089581E70895D5
:1001000080E0089586E008951F9380EF8ABB8FEF0B
:1001100084BB81B38C6081BB80E88BBB80E00E9494
:100120003E0085BB10E0829B0FC01F5F812F0E94A5
:100130003E0085BB8FE59AEEA0E081509040A04044
:10014000E1F700C00000EFCF839BEDCF1150812F6E
:100150000E943E0085BB8FE59AEEA0E08150904062
:10016000A040E1F700C00000DECF1F920F920FB653
:100170000F9211242F933F934F935F936F937F932D
:100180008F939F93AF93BF93CF93DF93EF93FF939F
:1001900015BA1BBAC0916800D0916900FE01EE0F3C
:1001A000FF1FE458FF4F80810E943E0085BB87E01F
:1001B00090E08C1B9D0B21E030E0A90102C0440FB0
:1001C000551F8A95E2F74BBBCE01019664E070E0C3
:1001D0000E9466029093690080936800FF91EF91FE
:1001E000DF91CF91BF91AF919F918F917F916F914F
:1001F0005F914F913F912F910F900FBE0F901F90E5
:1002000018951F920F920FB60F9211242F933F93C0
:100210004F935F936F937F938F939F93AF93BF930E
:10022000CF93DF93EF93FF9315BA1BBAC091680089
:10023000D0916900FE01EE0FFF1FEC58FF4F808147
:100240000E943E0085BB87E090E08C1B9D0B21E067
:1002500030E0A90102C0440F551F8A95E2F74BBB5D
:10026000CE01019664E070E00E94660290936900FE
:1002700080936800FF91EF91DF91CF91BF91AF9193
:100280009F918F917F916F915F914F913F912F91AE
:100290000F900FBE0F901F9018951F920F920FB6E0
:1002A0000F9211242F933F938F939F93809164001B
:1002B000909165001816190654F020916000309155
:1002C00061002F5F3F4F30936100209360000196E3
:1002D00090936500809364009F918F913F912F913F
:1002E0000F900FBE0F901F9018951F920F920FB690
:1002F0000F9211248F939F938091660090916700D5
:10030000181619065CF080916000909161000097CA
:1003100029F00197909361008093600080916600BE
:1003200090916700019690936700809366009F917B
:100330008F910F900FBE0F901F901895CF93DF9362
:10034000ECE7F0E0EF0128962AE030E0B9010E94E6
:10035000660281939193862F972FEC17FD07B1F7D3
:10036000DF91CF91089580EF8ABB8FEF84BB1BBADA
:1003700015BA83B78B6083BF84E18CBF89B7826075
:1003800089BF80EB81BB12BA789480E094E00E9430
:100390009E01FFCF0F931F93CF93DF939C01ECE659
:1003A000F0E08F01085F1F4FC8E0D0E0C901BE0137
:1003B0000E94660281939193C90199230CF40796D8
:1003C0009C01359527953595279535952795E01707
:1003D000F10761F7DF91CF911F910F9108950F936E
:1003E0001F93CF93DF939C01E4E7F0E08F01085F58
:1003F0001F4FC0E1D0E0C901BE010E946602819397
:100400009193C90199230CF40F969C01359527957A
:10041000359527953595279535952795E017F1075B
:1004200051F7DF91CF911F910F91089580EF8ABB13
:100430008FEF84BB81B38C6081BB8FE085BF80EC84
:100440008BBF1BBA15BA8FB5816A8FBD8EB5896017
:100450008EBD8AE090E09BBD8ABD89B7806189BF6F
:1004600012BA789480916000909161000E94CA0154
:1004700080916000909161000E94EF01829902C01A
:10048000839B0DC0809162009091630001969093D0
:100490006300809362008233910534F409C01092A6
:1004A00063001092620004C010926100109260001C
:1004B000109265001092640010926700109266001E
:1004C000D1CF0E94160280E090E0089597FB092E9C
:1004D00007260AD077FD04D00CD006D000201AF4ED
:1004E000709561957F4F0895F6F7909581959F4F90
:1004F0000895AA1BBB1B51E107C0AA1FBB1FA6176B
:10050000B70710F0A61BB70B881F991F5A95A9F7BC
:0E05100080959095BC01CD010895F894FFCF21
:00000001FF
